{
  "contractName": "KittyBirth",
  "abi": [
    {
      "constant": true,
      "inputs": [],
      "name": "name",
      "outputs": [
        {
          "name": "",
          "type": "string"
        }
      ],
      "payable": false,
      "stateMutability": "view",
      "type": "function"
    },
    {
      "constant": true,
      "inputs": [
        {
          "name": "_tokenId",
          "type": "uint256"
        }
      ],
      "name": "getApproved",
      "outputs": [
        {
          "name": "",
          "type": "address"
        }
      ],
      "payable": false,
      "stateMutability": "view",
      "type": "function"
    },
    {
      "constant": false,
      "inputs": [
        {
          "name": "_to",
          "type": "address"
        },
        {
          "name": "_tokenId",
          "type": "uint256"
        }
      ],
      "name": "approve",
      "outputs": [],
      "payable": false,
      "stateMutability": "nonpayable",
      "type": "function"
    },
    {
      "constant": true,
      "inputs": [],
      "name": "totalSupply",
      "outputs": [
        {
          "name": "",
          "type": "uint256"
        }
      ],
      "payable": false,
      "stateMutability": "view",
      "type": "function"
    },
    {
      "constant": false,
      "inputs": [
        {
          "name": "_from",
          "type": "address"
        },
        {
          "name": "_to",
          "type": "address"
        },
        {
          "name": "_tokenId",
          "type": "uint256"
        }
      ],
      "name": "transferFrom",
      "outputs": [],
      "payable": false,
      "stateMutability": "nonpayable",
      "type": "function"
    },
    {
      "constant": true,
      "inputs": [
        {
          "name": "_owner",
          "type": "address"
        },
        {
          "name": "_index",
          "type": "uint256"
        }
      ],
      "name": "tokenOfOwnerByIndex",
      "outputs": [
        {
          "name": "",
          "type": "uint256"
        }
      ],
      "payable": false,
      "stateMutability": "view",
      "type": "function"
    },
    {
      "constant": false,
      "inputs": [
        {
          "name": "_from",
          "type": "address"
        },
        {
          "name": "_to",
          "type": "address"
        },
        {
          "name": "_tokenId",
          "type": "uint256"
        }
      ],
      "name": "safeTransferFrom",
      "outputs": [],
      "payable": false,
      "stateMutability": "nonpayable",
      "type": "function"
    },
    {
      "constant": true,
      "inputs": [
        {
          "name": "_tokenId",
          "type": "uint256"
        }
      ],
      "name": "exists",
      "outputs": [
        {
          "name": "",
          "type": "bool"
        }
      ],
      "payable": false,
      "stateMutability": "view",
      "type": "function"
    },
    {
      "constant": true,
      "inputs": [
        {
          "name": "_index",
          "type": "uint256"
        }
      ],
      "name": "tokenByIndex",
      "outputs": [
        {
          "name": "",
          "type": "uint256"
        }
      ],
      "payable": false,
      "stateMutability": "view",
      "type": "function"
    },
    {
      "constant": true,
      "inputs": [
        {
          "name": "_tokenId",
          "type": "uint256"
        }
      ],
      "name": "ownerOf",
      "outputs": [
        {
          "name": "",
          "type": "address"
        }
      ],
      "payable": false,
      "stateMutability": "view",
      "type": "function"
    },
    {
      "constant": true,
      "inputs": [
        {
          "name": "_owner",
          "type": "address"
        }
      ],
      "name": "balanceOf",
      "outputs": [
        {
          "name": "",
          "type": "uint256"
        }
      ],
      "payable": false,
      "stateMutability": "view",
      "type": "function"
    },
    {
      "constant": true,
      "inputs": [
        {
          "name": "",
          "type": "uint256"
        }
      ],
      "name": "kittyToOwner",
      "outputs": [
        {
          "name": "",
          "type": "address"
        }
      ],
      "payable": false,
      "stateMutability": "view",
      "type": "function"
    },
    {
      "constant": true,
      "inputs": [
        {
          "name": "",
          "type": "address"
        },
        {
          "name": "",
          "type": "uint256"
        }
      ],
      "name": "ownerToKitties",
      "outputs": [
        {
          "name": "",
          "type": "uint256"
        }
      ],
      "payable": false,
      "stateMutability": "view",
      "type": "function"
    },
    {
      "constant": true,
      "inputs": [
        {
          "name": "",
          "type": "uint256"
        }
      ],
      "name": "kitties",
      "outputs": [
        {
          "name": "id",
          "type": "uint256"
        },
        {
          "name": "level",
          "type": "uint8"
        },
        {
          "name": "age",
          "type": "uint8"
        }
      ],
      "payable": false,
      "stateMutability": "view",
      "type": "function"
    },
    {
      "constant": true,
      "inputs": [],
      "name": "symbol",
      "outputs": [
        {
          "name": "",
          "type": "string"
        }
      ],
      "payable": false,
      "stateMutability": "view",
      "type": "function"
    },
    {
      "constant": false,
      "inputs": [
        {
          "name": "_to",
          "type": "address"
        },
        {
          "name": "_approved",
          "type": "bool"
        }
      ],
      "name": "setApprovalForAll",
      "outputs": [],
      "payable": false,
      "stateMutability": "nonpayable",
      "type": "function"
    },
    {
      "constant": true,
      "inputs": [
        {
          "name": "",
          "type": "uint256"
        }
      ],
      "name": "kittyById",
      "outputs": [
        {
          "name": "id",
          "type": "uint256"
        },
        {
          "name": "level",
          "type": "uint8"
        },
        {
          "name": "age",
          "type": "uint8"
        }
      ],
      "payable": false,
      "stateMutability": "view",
      "type": "function"
    },
    {
      "constant": false,
      "inputs": [
        {
          "name": "_from",
          "type": "address"
        },
        {
          "name": "_to",
          "type": "address"
        },
        {
          "name": "_tokenId",
          "type": "uint256"
        },
        {
          "name": "_data",
          "type": "bytes"
        }
      ],
      "name": "safeTransferFrom",
      "outputs": [],
      "payable": false,
      "stateMutability": "nonpayable",
      "type": "function"
    },
    {
      "constant": true,
      "inputs": [
        {
          "name": "_tokenId",
          "type": "uint256"
        }
      ],
      "name": "tokenURI",
      "outputs": [
        {
          "name": "",
          "type": "string"
        }
      ],
      "payable": false,
      "stateMutability": "view",
      "type": "function"
    },
    {
      "constant": true,
      "inputs": [
        {
          "name": "_owner",
          "type": "address"
        },
        {
          "name": "_operator",
          "type": "address"
        }
      ],
      "name": "isApprovedForAll",
      "outputs": [
        {
          "name": "",
          "type": "bool"
        }
      ],
      "payable": false,
      "stateMutability": "view",
      "type": "function"
    },
    {
      "anonymous": false,
      "inputs": [
        {
          "indexed": false,
          "name": "kittyId",
          "type": "uint256"
        },
        {
          "indexed": false,
          "name": "kittyAge",
          "type": "uint8"
        },
        {
          "indexed": false,
          "name": "level",
          "type": "uint8"
        }
      ],
      "name": "Birth",
      "type": "event"
    },
    {
      "anonymous": false,
      "inputs": [
        {
          "indexed": true,
          "name": "_from",
          "type": "address"
        },
        {
          "indexed": true,
          "name": "_to",
          "type": "address"
        },
        {
          "indexed": false,
          "name": "_tokenId",
          "type": "uint256"
        }
      ],
      "name": "Transfer",
      "type": "event"
    },
    {
      "anonymous": false,
      "inputs": [
        {
          "indexed": true,
          "name": "_owner",
          "type": "address"
        },
        {
          "indexed": true,
          "name": "_approved",
          "type": "address"
        },
        {
          "indexed": false,
          "name": "_tokenId",
          "type": "uint256"
        }
      ],
      "name": "Approval",
      "type": "event"
    },
    {
      "anonymous": false,
      "inputs": [
        {
          "indexed": true,
          "name": "_owner",
          "type": "address"
        },
        {
          "indexed": true,
          "name": "_operator",
          "type": "address"
        },
        {
          "indexed": false,
          "name": "_approved",
          "type": "bool"
        }
      ],
      "name": "ApprovalForAll",
      "type": "event"
    },
    {
      "constant": false,
      "inputs": [],
      "name": "generateKitty",
      "outputs": [],
      "payable": false,
      "stateMutability": "nonpayable",
      "type": "function"
    },
    {
      "constant": true,
      "inputs": [
        {
          "name": "ownerAddress",
          "type": "address"
        }
      ],
      "name": "getKitties",
      "outputs": [
        {
          "name": "",
          "type": "uint256[]"
        }
      ],
      "payable": false,
      "stateMutability": "view",
      "type": "function"
    },
    {
      "constant": true,
      "inputs": [
        {
          "name": "kittyId",
          "type": "uint256"
        }
      ],
      "name": "getKittyInfo",
      "outputs": [
        {
          "name": "",
          "type": "uint256"
        },
        {
          "name": "",
          "type": "uint8"
        },
        {
          "name": "",
          "type": "uint8"
        }
      ],
      "payable": false,
      "stateMutability": "view",
      "type": "function"
    }
  ],
  "bytecode": "0x60806040526040805190810160405280600581526020017f4b495454590000000000000000000000000000000000000000000000000000008152506040805190810160405280600381526020017f4b49540000000000000000000000000000000000000000000000000000000000815250816004908051906020019062000088929190620000aa565b508060059080519060200190620000a1929190620000aa565b50505062000159565b828054600181600116156101000203166002900490600052602060002090601f016020900481019282601f10620000ed57805160ff19168380011785556200011e565b828001600101855582156200011e579182015b828111156200011d57825182559160200191906001019062000100565b5b5090506200012d919062000131565b5090565b6200015691905b808211156200015257600081600090555060010162000138565b5090565b90565b6122a480620001696000396000f300608060405260043610610133576000357c0100000000000000000000000000000000000000000000000000000000900463ffffffff16806306fdde0314610138578063081812fc146101c8578063095ea7b31461023557806318160ddd1461028257806323b872dd146102ad5780632f745c591461031a57806342842e0e1461037b5780634e6caeca146103e85780634f558e79146104805780634f6ccce7146104c55780636352211e1461050657806370a082311461057357806375ca3b2e146105ca57806387c74868146106255780638a1fe2ae146106925780638cc51eda146106f35780638db7910d1461074e57806395d89b4114610765578063a22cb465146107f5578063b1b4e63714610844578063b88d4fde1461089f578063c87b56dd14610952578063e985e9c5146109f8575b600080fd5b34801561014457600080fd5b5061014d610a73565b6040518080602001828103825283818151815260200191508051906020019080838360005b8381101561018d578082015181840152602081019050610172565b50505050905090810190601f1680156101ba5780820380516001836020036101000a031916815260200191505b509250505060405180910390f35b3480156101d457600080fd5b506101f360048036038101908080359060200190929190505050610b15565b604051808273ffffffffffffffffffffffffffffffffffffffff1673ffffffffffffffffffffffffffffffffffffffff16815260200191505060405180910390f35b34801561024157600080fd5b50610280600480360381019080803573ffffffffffffffffffffffffffffffffffffffff16906020019092919080359060200190929190505050610b52565b005b34801561028e57600080fd5b50610297610d18565b6040518082815260200191505060405180910390f35b3480156102b957600080fd5b50610318600480360381019080803573ffffffffffffffffffffffffffffffffffffffff169060200190929190803573ffffffffffffffffffffffffffffffffffffffff16906020019092919080359060200190929190505050610d25565b005b34801561032657600080fd5b50610365600480360381019080803573ffffffffffffffffffffffffffffffffffffffff16906020019092919080359060200190929190505050610e3c565b6040518082815260200191505060405180910390f35b34801561038757600080fd5b506103e6600480360381019080803573ffffffffffffffffffffffffffffffffffffffff169060200190929190803573ffffffffffffffffffffffffffffffffffffffff16906020019092919080359060200190929190505050610eb3565b005b3480156103f457600080fd5b50610429600480360381019080803573ffffffffffffffffffffffffffffffffffffffff169060200190929190505050610eeb565b6040518080602001828103825283818151815260200191508051906020019060200280838360005b8381101561046c578082015181840152602081019050610451565b505050509050019250505060405180910390f35b34801561048c57600080fd5b506104ab60048036038101908080359060200190929190505050610f82565b604051808215151515815260200191505060405180910390f35b3480156104d157600080fd5b506104f060048036038101908080359060200190929190505050610ff3565b6040518082815260200191505060405180910390f35b34801561051257600080fd5b506105316004803603810190808035906020019092919050505061102b565b604051808273ffffffffffffffffffffffffffffffffffffffff1673ffffffffffffffffffffffffffffffffffffffff16815260200191505060405180910390f35b34801561057f57600080fd5b506105b4600480360381019080803573ffffffffffffffffffffffffffffffffffffffff1690602001909291905050506110a8565b6040518082815260200191505060405180910390f35b3480156105d657600080fd5b506105f56004803603810190808035906020019092919050505061112c565b604051808481526020018360ff1660ff1681526020018260ff1660ff168152602001935050505060405180910390f35b34801561063157600080fd5b506106506004803603810190808035906020019092919050505061119d565b604051808273ffffffffffffffffffffffffffffffffffffffff1673ffffffffffffffffffffffffffffffffffffffff16815260200191505060405180910390f35b34801561069e57600080fd5b506106dd600480360381019080803573ffffffffffffffffffffffffffffffffffffffff169060200190929190803590602001909291905050506111d0565b6040518082815260200191505060405180910390f35b3480156106ff57600080fd5b5061071e60048036038101908080359060200190929190505050611200565b604051808481526020018360ff1660ff1681526020018260ff1660ff168152602001935050505060405180910390f35b34801561075a57600080fd5b50610763611253565b005b34801561077157600080fd5b5061077a611498565b6040518080602001828103825283818151815260200191508051906020019080838360005b838110156107ba57808201518184015260208101905061079f565b50505050905090810190601f1680156107e75780820380516001836020036101000a031916815260200191505b509250505060405180910390f35b34801561080157600080fd5b50610842600480360381019080803573ffffffffffffffffffffffffffffffffffffffff16906020019092919080351515906020019092919050505061153a565b005b34801561085057600080fd5b5061086f60048036038101908080359060200190929190505050611676565b604051808481526020018360ff1660ff1681526020018260ff1660ff168152602001935050505060405180910390f35b3480156108ab57600080fd5b50610950600480360381019080803573ffffffffffffffffffffffffffffffffffffffff169060200190929190803573ffffffffffffffffffffffffffffffffffffffff16906020019092919080359060200190929190803590602001908201803590602001908080601f01602080910402602001604051908101604052809392919081815260200183838082843782019150505050505091929192905050506116ba565b005b34801561095e57600080fd5b5061097d600480360381019080803590602001909291905050506116f9565b6040518080602001828103825283818151815260200191508051906020019080838360005b838110156109bd5780820151818401526020810190506109a2565b50505050905090810190601f1680156109ea5780820380516001836020036101000a031916815260200191505b509250505060405180910390f35b348015610a0457600080fd5b50610a59600480360381019080803573ffffffffffffffffffffffffffffffffffffffff169060200190929190803573ffffffffffffffffffffffffffffffffffffffff1690602001909291905050506117c2565b604051808215151515815260200191505060405180910390f35b606060048054600181600116156101000203166002900480601f016020809104026020016040519081016040528092919081815260200182805460018160011615610100020316600290048015610b0b5780601f10610ae057610100808354040283529160200191610b0b565b820191906000526020600020905b815481529060010190602001808311610aee57829003601f168201915b5050505050905090565b60006001600083815260200190815260200160002060009054906101000a900473ffffffffffffffffffffffffffffffffffffffff169050919050565b6000610b5d8261102b565b90508073ffffffffffffffffffffffffffffffffffffffff168373ffffffffffffffffffffffffffffffffffffffff1614151515610b9a57600080fd5b8073ffffffffffffffffffffffffffffffffffffffff163373ffffffffffffffffffffffffffffffffffffffff161480610bda5750610bd981336117c2565b5b1515610be557600080fd5b600073ffffffffffffffffffffffffffffffffffffffff16610c0683610b15565b73ffffffffffffffffffffffffffffffffffffffff16141580610c565750600073ffffffffffffffffffffffffffffffffffffffff168373ffffffffffffffffffffffffffffffffffffffff1614155b15610d1357826001600084815260200190815260200160002060006101000a81548173ffffffffffffffffffffffffffffffffffffffff021916908373ffffffffffffffffffffffffffffffffffffffff1602179055508273ffffffffffffffffffffffffffffffffffffffff168173ffffffffffffffffffffffffffffffffffffffff167f8c5be1e5ebec7d5bd14f71427d1e84f3dd0314c0f7b2291e5b200ac8c7c3b925846040518082815260200191505060405180910390a35b505050565b6000600880549050905090565b80610d303382611856565b1515610d3b57600080fd5b600073ffffffffffffffffffffffffffffffffffffffff168473ffffffffffffffffffffffffffffffffffffffff1614151515610d7757600080fd5b600073ffffffffffffffffffffffffffffffffffffffff168373ffffffffffffffffffffffffffffffffffffffff1614151515610db357600080fd5b610dbd84836118eb565b610dc78483611a54565b610dd18383611c6c565b8273ffffffffffffffffffffffffffffffffffffffff168473ffffffffffffffffffffffffffffffffffffffff167fddf252ad1be2c89b69c2b068fc378daa952ba7f163c4a11628f55a4df523b3ef846040518082815260200191505060405180910390a350505050565b6000610e47836110a8565b82101515610e5457600080fd5b600660008473ffffffffffffffffffffffffffffffffffffffff1673ffffffffffffffffffffffffffffffffffffffff16815260200190815260200160002082815481101515610ea057fe5b9060005260206000200154905092915050565b80610ebe3382611856565b1515610ec957600080fd5b610ee584848460206040519081016040528060008152506116ba565b50505050565b6060600c60008373ffffffffffffffffffffffffffffffffffffffff1673ffffffffffffffffffffffffffffffffffffffff168152602001908152602001600020805480602002602001604051908101604052809291908181526020018280548015610f7657602002820191906000526020600020905b815481526020019060010190808311610f62575b50505050509050919050565b60008060008084815260200190815260200160002060009054906101000a900473ffffffffffffffffffffffffffffffffffffffff169050600073ffffffffffffffffffffffffffffffffffffffff168173ffffffffffffffffffffffffffffffffffffffff161415915050919050565b6000610ffd610d18565b8210151561100a57600080fd5b60088281548110151561101957fe5b90600052602060002001549050919050565b60008060008084815260200190815260200160002060009054906101000a900473ffffffffffffffffffffffffffffffffffffffff169050600073ffffffffffffffffffffffffffffffffffffffff168173ffffffffffffffffffffffffffffffffffffffff161415151561109f57600080fd5b80915050919050565b60008073ffffffffffffffffffffffffffffffffffffffff168273ffffffffffffffffffffffffffffffffffffffff16141515156110e557600080fd5b600260008373ffffffffffffffffffffffffffffffffffffffff1673ffffffffffffffffffffffffffffffffffffffff168152602001908152602001600020549050919050565b6000806000600d600085815260200190815260200160002060000154600d600086815260200190815260200160002060010160009054906101000a900460ff16600d600087815260200190815260200160002060010160019054906101000a900460ff169250925092509193909250565b600b6020528060005260406000206000915054906101000a900473ffffffffffffffffffffffffffffffffffffffff1681565b600c602052816000526040600020818154811015156111eb57fe5b90600052602060002001600091509150505481565b600e8181548110151561120f57fe5b90600052602060002090600202016000915090508060000154908060010160009054906101000a900460ff16908060010160019054906101000a900460ff16905083565b60008060006112606121ff565b4260405180828152602001915050604051809103902060019004935060ff426040518082815260200191505060405180910390206001900460ff168115156112a457fe5b0692506064426040518082815260200191505060405180910390206001900460ff168115156112cf57fe5b0691506060604051908101604052808581526020018360ff1681526020018460ff168152509050600c60003373ffffffffffffffffffffffffffffffffffffffff1673ffffffffffffffffffffffffffffffffffffffff168152602001908152602001600020849080600181540180825580915050906001820390600052602060002001600090919290919091505550600e81908060018154018082558091505090600182039060005260206000209060020201600090919290919091506000820151816000015560208201518160010160006101000a81548160ff021916908360ff16021790555060408201518160010160016101000a81548160ff021916908360ff16021790555050505080600d60008681526020019081526020016000206000820151816000015560208201518160010160006101000a81548160ff021916908360ff16021790555060408201518160010160016101000a81548160ff021916908360ff1602179055509050507fc95cc3d9a3e55ac646d6564b81ba54ef024bbe670bf9db3046e0e58186cdd943848484604051808481526020018360ff1660ff1681526020018260ff1660ff168152602001935050505060405180910390a150505050565b606060058054600181600116156101000203166002900480601f0160208091040260200160405190810160405280929190818152602001828054600181600116156101000203166002900480156115305780601f1061150557610100808354040283529160200191611530565b820191906000526020600020905b81548152906001019060200180831161151357829003601f168201915b5050505050905090565b3373ffffffffffffffffffffffffffffffffffffffff168273ffffffffffffffffffffffffffffffffffffffff161415151561157557600080fd5b80600360003373ffffffffffffffffffffffffffffffffffffffff1673ffffffffffffffffffffffffffffffffffffffff16815260200190815260200160002060008473ffffffffffffffffffffffffffffffffffffffff1673ffffffffffffffffffffffffffffffffffffffff16815260200190815260200160002060006101000a81548160ff0219169083151502179055508173ffffffffffffffffffffffffffffffffffffffff163373ffffffffffffffffffffffffffffffffffffffff167f17307eab39ab6107e8899845ad3d59bd9653f200f220920489ca2b5937696c3183604051808215151515815260200191505060405180910390a35050565b600d6020528060005260406000206000915090508060000154908060010160009054906101000a900460ff16908060010160019054906101000a900460ff16905083565b816116c53382611856565b15156116d057600080fd5b6116db858585610d25565b6116e785858585611d43565b15156116f257600080fd5b5050505050565b606061170482610f82565b151561170f57600080fd5b600a60008381526020019081526020016000208054600181600116156101000203166002900480601f0160208091040260200160405190810160405280929190818152602001828054600181600116156101000203166002900480156117b65780601f1061178b576101008083540402835291602001916117b6565b820191906000526020600020905b81548152906001019060200180831161179957829003601f168201915b50505050509050919050565b6000600360008473ffffffffffffffffffffffffffffffffffffffff1673ffffffffffffffffffffffffffffffffffffffff16815260200190815260200160002060008373ffffffffffffffffffffffffffffffffffffffff1673ffffffffffffffffffffffffffffffffffffffff16815260200190815260200160002060009054906101000a900460ff16905092915050565b6000806118628361102b565b90508073ffffffffffffffffffffffffffffffffffffffff168473ffffffffffffffffffffffffffffffffffffffff1614806118d157508373ffffffffffffffffffffffffffffffffffffffff166118b984610b15565b73ffffffffffffffffffffffffffffffffffffffff16145b806118e257506118e181856117c2565b5b91505092915050565b8173ffffffffffffffffffffffffffffffffffffffff1661190b8261102b565b73ffffffffffffffffffffffffffffffffffffffff1614151561192d57600080fd5b600073ffffffffffffffffffffffffffffffffffffffff166001600083815260200190815260200160002060009054906101000a900473ffffffffffffffffffffffffffffffffffffffff1673ffffffffffffffffffffffffffffffffffffffff16141515611a505760006001600083815260200190815260200160002060006101000a81548173ffffffffffffffffffffffffffffffffffffffff021916908373ffffffffffffffffffffffffffffffffffffffff160217905550600073ffffffffffffffffffffffffffffffffffffffff168273ffffffffffffffffffffffffffffffffffffffff167f8c5be1e5ebec7d5bd14f71427d1e84f3dd0314c0f7b2291e5b200ac8c7c3b925836040518082815260200191505060405180910390a35b5050565b6000806000611a638585611f31565b60076000858152602001908152602001600020549250611acf6001600660008873ffffffffffffffffffffffffffffffffffffffff1673ffffffffffffffffffffffffffffffffffffffff1681526020019081526020016000208054905061205f90919063ffffffff16565b9150600660008673ffffffffffffffffffffffffffffffffffffffff1673ffffffffffffffffffffffffffffffffffffffff16815260200190815260200160002082815481101515611b1d57fe5b9060005260206000200154905080600660008773ffffffffffffffffffffffffffffffffffffffff1673ffffffffffffffffffffffffffffffffffffffff16815260200190815260200160002084815481101515611b7757fe5b90600052602060002001819055506000600660008773ffffffffffffffffffffffffffffffffffffffff1673ffffffffffffffffffffffffffffffffffffffff16815260200190815260200160002083815481101515611bd357fe5b9060005260206000200181905550600660008673ffffffffffffffffffffffffffffffffffffffff1673ffffffffffffffffffffffffffffffffffffffff168152602001908152602001600020805480919060019003611c339190612227565b50600060076000868152602001908152602001600020819055508260076000838152602001908152602001600020819055505050505050565b6000611c788383612078565b600660008473ffffffffffffffffffffffffffffffffffffffff1673ffffffffffffffffffffffffffffffffffffffff168152602001908152602001600020805490509050600660008473ffffffffffffffffffffffffffffffffffffffff1673ffffffffffffffffffffffffffffffffffffffff168152602001908152602001600020829080600181540180825580915050906001820390600052602060002001600090919290919091505550806007600084815260200190815260200160002081905550505050565b600080611d658573ffffffffffffffffffffffffffffffffffffffff166121d0565b1515611d745760019150611f28565b8473ffffffffffffffffffffffffffffffffffffffff1663f0b9e5ba8786866040518463ffffffff167c0100000000000000000000000000000000000000000000000000000000028152600401808473ffffffffffffffffffffffffffffffffffffffff1673ffffffffffffffffffffffffffffffffffffffff16815260200183815260200180602001828103825283818151815260200191508051906020019080838360005b83811015611e36578082015181840152602081019050611e1b565b50505050905090810190601f168015611e635780820380516001836020036101000a031916815260200191505b50945050505050602060405180830381600087803b158015611e8457600080fd5b505af1158015611e98573d6000803e3d6000fd5b505050506040513d6020811015611eae57600080fd5b8101908080519060200190929190505050905063f0b9e5ba7c0100000000000000000000000000000000000000000000000000000000027bffffffffffffffffffffffffffffffffffffffffffffffffffffffff1916817bffffffffffffffffffffffffffffffffffffffffffffffffffffffff19161491505b50949350505050565b8173ffffffffffffffffffffffffffffffffffffffff16611f518261102b565b73ffffffffffffffffffffffffffffffffffffffff16141515611f7357600080fd5b611fc66001600260008573ffffffffffffffffffffffffffffffffffffffff1673ffffffffffffffffffffffffffffffffffffffff1681526020019081526020016000205461205f90919063ffffffff16565b600260008473ffffffffffffffffffffffffffffffffffffffff1673ffffffffffffffffffffffffffffffffffffffff16815260200190815260200160002081905550600080600083815260200190815260200160002060006101000a81548173ffffffffffffffffffffffffffffffffffffffff021916908373ffffffffffffffffffffffffffffffffffffffff1602179055505050565b600082821115151561206d57fe5b818303905092915050565b600073ffffffffffffffffffffffffffffffffffffffff1660008083815260200190815260200160002060009054906101000a900473ffffffffffffffffffffffffffffffffffffffff1673ffffffffffffffffffffffffffffffffffffffff161415156120e557600080fd5b8160008083815260200190815260200160002060006101000a81548173ffffffffffffffffffffffffffffffffffffffff021916908373ffffffffffffffffffffffffffffffffffffffff1602179055506121896001600260008573ffffffffffffffffffffffffffffffffffffffff1673ffffffffffffffffffffffffffffffffffffffff168152602001908152602001600020546121e390919063ffffffff16565b600260008473ffffffffffffffffffffffffffffffffffffffff1673ffffffffffffffffffffffffffffffffffffffff168152602001908152602001600020819055505050565b600080823b905060008111915050919050565b600081830190508281101515156121f657fe5b80905092915050565b60606040519081016040528060008152602001600060ff168152602001600060ff1681525090565b81548183558181111561224e5781836000526020600020918201910161224d9190612253565b5b505050565b61227591905b80821115612271576000816000905550600101612259565b5090565b905600a165627a7a723058204d64f7f52679544d8d332fa492e87b94bca29d49790310934aeb84db634567e30029",
  "source": "pragma solidity ^0.4.11;\n\nimport 'openzeppelin-solidity/contracts/token/ERC721/ERC721Token.sol';\n\ncontract KittyBirth is ERC721Token('KITTY', 'KIT') {\n  event Birth(uint256 kittyId, uint8 kittyAge, uint8 level);\n  \n  mapping (uint256 => address) public kittyToOwner;\n  mapping (address => uint256[]) public ownerToKitties;\n  mapping (uint256 => Kitty) public kittyById;\n\n  struct Kitty {\n    uint256 id;\n    uint8 level;\n    uint8 age;\n  }\n\n  Kitty[] public kitties;\n\n  /* mapping (uint256 => address) public kittyToOwner; */\n  function generateKitty() public {\n    uint256 _id = uint256(keccak256(now));\n    uint8 _age = uint8(keccak256(now)) % 255;\n    uint8 _level = uint8(keccak256(now)) % 100;\n\n    Kitty memory _kitty = Kitty({\n      id: _id,\n      level: _level,\n      age: _age\n    });\n\n    ownerToKitties[msg.sender].push(_id);\n    kitties.push(_kitty);\n    kittyById[_id] = _kitty;\n\n    emit Birth(_id, _age, _level);\n  }\n\n  function getKitties(address ownerAddress) public view returns (uint256[]) {\n    return ownerToKitties[ownerAddress];\n  }\n\n  function getKittyInfo(uint256 kittyId) public view returns (uint256, uint8, uint8) {\n    return (kittyById[kittyId].id, kittyById[kittyId].level, kittyById[kittyId].age);\n  }\n}\n",
  "sourcePath": "/Users/hoonilkim/work/fakeKitties/contracts/KittyBirth.sol",
  "compiler": {
    "name": "solc",
    "version": "0.4.23+commit.124ca40d.Emscripten.clang"
  },
  "schemaVersion": "2.0.0",
  "updatedAt": "2018-05-09T05:40:09.957Z"
}